{
    "contractName": "MerchantData",
    "abi": [
        {
            "inputs": [
                {
                    "internalType": "address",
                    "name": "_merchantAddress",
                    "type": "address"
                }
            ],
            "name": "addMerchantAddress",
            "outputs": [],
            "stateMutability": "nonpayable",
            "type": "function"
        },
        {
            "inputs": [
                {
                    "internalType": "uint256",
                    "name": "index",
                    "type": "uint256"
                }
            ],
            "name": "getMerchantAtIndex",
            "outputs": [
                {
                    "internalType": "address",
                    "name": "",
                    "type": "address"
                }
            ],
            "stateMutability": "view",
            "type": "function"
        },
        {
            "inputs": [],
            "name": "getMerchantCount",
            "outputs": [
                {
                    "internalType": "uint256",
                    "name": "length",
                    "type": "uint256"
                }
            ],
            "stateMutability": "view",
            "type": "function"
        },
        {
            "inputs": [
                {
                    "internalType": "address",
                    "name": "_token",
                    "type": "address"
                }
            ],
            "name": "getMerchantToken",
            "outputs": [
                {
                    "internalType": "address",
                    "name": "",
                    "type": "address"
                }
            ],
            "stateMutability": "view",
            "type": "function"
        },
        {
            "inputs": [
                {
                    "internalType": "address",
                    "name": "",
                    "type": "address"
                }
            ],
            "name": "merchant",
            "outputs": [
                {
                    "internalType": "address",
                    "name": "",
                    "type": "address"
                }
            ],
            "stateMutability": "view",
            "type": "function"
        },
        {
            "inputs": [
                {
                    "internalType": "uint256",
                    "name": "",
                    "type": "uint256"
                }
            ],
            "name": "merchants",
            "outputs": [
                {
                    "internalType": "address",
                    "name": "",
                    "type": "address"
                }
            ],
            "stateMutability": "view",
            "type": "function"
        },
        {
            "inputs": [
                {
                    "internalType": "address",
                    "name": "_token",
                    "type": "address"
                },
                {
                    "internalType": "address",
                    "name": "_merchantAddress",
                    "type": "address"
                }
            ],
            "name": "setMerchantToken",
            "outputs": [],
            "stateMutability": "nonpayable",
            "type": "function"
        }
    ],
    "bytecode": "608060405234801561001057600080fd5b506102f8806100206000396000f3fe608060405234801561001057600080fd5b506004361061007d5760003560e01c80638cec48e11161005b5780638cec48e11461010557806392c8823b14610118578063bde03c871461012b578063c875d8291461018c57600080fd5b8063215c94171461008257806344d4aeb0146100c85780635b578cc9146100d9575b600080fd5b6100ab61009036600461023e565b6000602081905290815260409020546001600160a01b031681565b6040516001600160a01b0390911681526020015b60405180910390f35b6001546040519081526020016100bf565b6100ab6100e736600461023e565b6001600160a01b039081166000908152602081905260409020541690565b6100ab610113366004610293565b6101c8565b6100ab610126366004610293565b6101f8565b61018a61013936600461023e565b6001805480820182556000919091527fb10e2d527612073b26eecdfd717e6a320cf44b4afac2b0732d9fcbe2b7fa0cf60180546001600160a01b0319166001600160a01b0392909216919091179055565b005b61018a61019a366004610260565b6001600160a01b03918216600090815260208190526040902080546001600160a01b03191691909216179055565b6000600182815481106101dd576101dd6102ac565b6000918252602090912001546001600160a01b031692915050565b6001818154811061020857600080fd5b6000918252602090912001546001600160a01b0316905081565b80356001600160a01b038116811461023957600080fd5b919050565b60006020828403121561025057600080fd5b61025982610222565b9392505050565b6000806040838503121561027357600080fd5b61027c83610222565b915061028a60208401610222565b90509250929050565b6000602082840312156102a557600080fd5b5035919050565b634e487b7160e01b600052603260045260246000fdfea2646970667358221220a1513843896bf2ccb2033bcaefacec4b48e21cc346a3335e7e26c037f490958164736f6c63430008070033",
    "sourcePath": "/Users/nuttapol.w/waggy p2p/contracts/MerchantData.sol",
    "compiler": {
        "name": "solc",
        "version": "0.8.7+commit.e28d00a7"
    },
    "functionHashes": {
        "addMerchantAddress(address)": "bde03c87",
        "getMerchantAtIndex(uint256)": "8cec48e1",
        "getMerchantCount()": "44d4aeb0",
        "getMerchantToken(address)": "5b578cc9",
        "merchant(address)": "215c9417",
        "merchants(uint256)": "92c8823b",
        "setMerchantToken(address,address)": "c875d829"
    },
    "gasEstimates": {
        "creation": {
            "codeDepositCost": "152000",
            "executionCost": "196",
            "totalCost": "152196"
        },
        "external": {
            "addMerchantAddress(address)": "48839",
            "getMerchantAtIndex(uint256)": "4608",
            "getMerchantCount()": "2303",
            "getMerchantToken(address)": "2604",
            "merchant(address)": "2551",
            "merchants(uint256)": "4625",
            "setMerchantToken(address,address)": "infinite"
        }
    }
}