{
    "contractName": "Merchant",
    "abi": [
        {
            "inputs": [
                {
                    "internalType": "address",
                    "name": "_token",
                    "type": "address"
                },
                {
                    "internalType": "address",
                    "name": "_gov",
                    "type": "address"
                },
                {
                    "internalType": "address",
                    "name": "_rewardCalculator",
                    "type": "address"
                }
            ],
            "stateMutability": "nonpayable",
            "type": "constructor"
        },
        {
            "anonymous": false,
            "inputs": [
                {
                    "indexed": true,
                    "internalType": "address",
                    "name": "previousOwner",
                    "type": "address"
                },
                {
                    "indexed": true,
                    "internalType": "address",
                    "name": "newOwner",
                    "type": "address"
                }
            ],
            "name": "OwnershipTransferred",
            "type": "event"
        },
        {
            "inputs": [
                {
                    "internalType": "uint256",
                    "name": "_amount",
                    "type": "uint256"
                }
            ],
            "name": "approveTransaction",
            "outputs": [],
            "stateMutability": "nonpayable",
            "type": "function"
        },
        {
            "inputs": [
                {
                    "internalType": "address",
                    "name": "_address",
                    "type": "address"
                },
                {
                    "internalType": "uint256",
                    "name": "_amount",
                    "type": "uint256"
                }
            ],
            "name": "cancelTransaction",
            "outputs": [],
            "stateMutability": "nonpayable",
            "type": "function"
        },
        {
            "inputs": [],
            "name": "deleteShop",
            "outputs": [],
            "stateMutability": "nonpayable",
            "type": "function"
        },
        {
            "inputs": [],
            "name": "owner",
            "outputs": [
                {
                    "internalType": "address",
                    "name": "",
                    "type": "address"
                }
            ],
            "stateMutability": "view",
            "type": "function"
        },
        {
            "inputs": [],
            "name": "ownerClaimToken",
            "outputs": [],
            "stateMutability": "nonpayable",
            "type": "function"
        },
        {
            "inputs": [
                {
                    "internalType": "address",
                    "name": "_receipt",
                    "type": "address"
                },
                {
                    "internalType": "uint256",
                    "name": "_amount",
                    "type": "uint256"
                }
            ],
            "name": "releaseToken",
            "outputs": [],
            "stateMutability": "nonpayable",
            "type": "function"
        },
        {
            "inputs": [],
            "name": "renounceOwnership",
            "outputs": [],
            "stateMutability": "nonpayable",
            "type": "function"
        },
        {
            "inputs": [
                {
                    "internalType": "uint256",
                    "name": "_amount",
                    "type": "uint256"
                }
            ],
            "name": "setupShop",
            "outputs": [],
            "stateMutability": "payable",
            "type": "function"
        },
        {
            "inputs": [
                {
                    "internalType": "address",
                    "name": "",
                    "type": "address"
                }
            ],
            "name": "shopBalance",
            "outputs": [
                {
                    "internalType": "uint256",
                    "name": "",
                    "type": "uint256"
                }
            ],
            "stateMutability": "view",
            "type": "function"
        },
        {
            "inputs": [
                {
                    "internalType": "address",
                    "name": "",
                    "type": "address"
                }
            ],
            "name": "shopLockBalance",
            "outputs": [
                {
                    "internalType": "uint256",
                    "name": "",
                    "type": "uint256"
                }
            ],
            "stateMutability": "view",
            "type": "function"
        },
        {
            "inputs": [
                {
                    "internalType": "address",
                    "name": "",
                    "type": "address"
                }
            ],
            "name": "successTransactionCount",
            "outputs": [
                {
                    "internalType": "uint256",
                    "name": "",
                    "type": "uint256"
                }
            ],
            "stateMutability": "view",
            "type": "function"
        },
        {
            "inputs": [
                {
                    "internalType": "address",
                    "name": "",
                    "type": "address"
                },
                {
                    "internalType": "string",
                    "name": "",
                    "type": "string"
                }
            ],
            "name": "transactionStatus",
            "outputs": [
                {
                    "internalType": "enum Merchant.TransactionStatus",
                    "name": "",
                    "type": "uint8"
                }
            ],
            "stateMutability": "view",
            "type": "function"
        },
        {
            "inputs": [
                {
                    "internalType": "address",
                    "name": "newOwner",
                    "type": "address"
                }
            ],
            "name": "transferOwnership",
            "outputs": [],
            "stateMutability": "nonpayable",
            "type": "function"
        },
        {
            "inputs": [
                {
                    "internalType": "address",
                    "name": "_rewardCalculator",
                    "type": "address"
                }
            ],
            "name": "updateRewardCalculator",
            "outputs": [],
            "stateMutability": "nonpayable",
            "type": "function"
        }
    ],
    "bytecode": "608060405234801561001057600080fd5b50604051610ec5380380610ec583398101604081905261002f916100e6565b6100383361007a565b600180546001600160a01b039485166001600160a01b031991821617909155600280549385169382169390931790925560038054919093169116179055610129565b600080546001600160a01b038381166001600160a01b0319831681178455604051919092169283917f8be0079c531659141344cd1fd0a4f28419497f9722a3daafe3b4186f6b6457e09190a35050565b80516001600160a01b03811681146100e157600080fd5b919050565b6000806000606084860312156100fb57600080fd5b610104846100ca565b9250610112602085016100ca565b9150610120604085016100ca565b90509250925092565b610d8d806101386000396000f3fe6080604052600436106100dd5760003560e01c806353edd8f71161007f5780638da5cb5b116100595780638da5cb5b1461025c578063a86658ab14610284578063c61cfdc7146102a4578063f2fde38b146102d157600080fd5b806353edd8f7146101fa5780636c87f2981461021a578063715018a61461024757600080fd5b806342d8a9da116100bb57806342d8a9da1461016457806343579fe8146101795780634659e48a1461018e57806351482a39146101e757600080fd5b806323619270146100e2578063242232d11461012257806333bd789a14610144575b600080fd5b3480156100ee57600080fd5b5061010f6100fd366004610b44565b60046020526000908152604090205481565b6040519081526020015b60405180910390f35b34801561012e57600080fd5b5061014261013d366004610c6d565b6102f1565b005b34801561015057600080fd5b5061014261015f366004610b44565b610360565b34801561017057600080fd5b506101426103b5565b34801561018557600080fd5b506101426104fe565b34801561019a57600080fd5b506101da6101a9366004610b5f565b6007602090815260009283526040909220815180830184018051928152908401929093019190912091525460ff1681565b6040516101199190610c9f565b6101426101f5366004610c6d565b6105e3565b34801561020657600080fd5b50610142610215366004610c21565b61070b565b34801561022657600080fd5b5061010f610235366004610b44565b60056020526000908152604090205481565b34801561025357600080fd5b506101426108a7565b34801561026857600080fd5b506000546040516001600160a01b039091168152602001610119565b34801561029057600080fd5b5061014261029f366004610c21565b6108dd565b3480156102b057600080fd5b5061010f6102bf366004610b44565b60066020526000908152604090205481565b3480156102dd57600080fd5b506101426102ec366004610b44565b61099e565b3360009081526004602052604090205481111561030d57600080fd5b336000908152600460205260409020546103279082610a36565b3360009081526004602090815260408083209390935560059052205461034d9082610a49565b3360009081526005602052604090205550565b6000546001600160a01b031633146103935760405162461bcd60e51b815260040161038a90610cc7565b60405180910390fd5b600380546001600160a01b0319166001600160a01b0392909216919091179055565b6000546001600160a01b031633146103df5760405162461bcd60e51b815260040161038a90610cc7565b6001546001600160a01b031663a9059cbb6104026000546001600160a01b031690565b6001546040516370a0823160e01b81523060048201526001600160a01b03909116906370a082319060240160206040518083038186803b15801561044557600080fd5b505afa158015610459573d6000803e3d6000fd5b505050506040513d601f19601f8201168201806040525081019061047d9190610c86565b6040516001600160e01b031960e085901b1681526001600160a01b0390921660048301526024820152604401602060405180830381600087803b1580156104c357600080fd5b505af11580156104d7573d6000803e3d6000fd5b505050506040513d601f19601f820116820180604052508101906104fb9190610c4b565b50565b336000908152600560205260409020541561051857600080fd5b3360009081526004602052604090205461053157600080fd5b600154336000818152600460208190526040918290205491516323b872dd60e01b81523091810191909152602481019290925260448201526001600160a01b03909116906323b872dd90606401602060405180830381600087803b15801561059857600080fd5b505af11580156105ac573d6000803e3d6000fd5b505050506040513d601f19601f820116820180604052508101906105d09190610c4b565b5033600090815260046020526040812055565b600154604051636eb1769f60e11b815233600482015230602482015282916001600160a01b03169063dd62ed3e9060440160206040518083038186803b15801561062c57600080fd5b505afa158015610640573d6000803e3d6000fd5b505050506040513d601f19601f820116820180604052508101906106649190610c86565b1161066e57600080fd5b6001546040516323b872dd60e01b8152336004820152306024820152604481018390526001600160a01b03909116906323b872dd90606401602060405180830381600087803b1580156106c057600080fd5b505af11580156106d4573d6000803e3d6000fd5b505050506040513d601f19601f820116820180604052508101906106f89190610c4b565b5033600090815260046020526040902055565b3360009081526005602052604090205481111561072757600080fd5b6001546040516323b872dd60e01b81523360048201526001600160a01b03848116602483015260448201849052909116906323b872dd90606401602060405180830381600087803b15801561077b57600080fd5b505af115801561078f573d6000803e3d6000fd5b505050506040513d601f19601f820116820180604052508101906107b39190610c4b565b50336000908152600560205260409020546107ce9082610a36565b336000908152600560209081526040808320939093556006905220546107f5906001610a49565b336000818152600660205260409020919091556002546001600160a01b03169063a9059cbb9061082484610a55565b6040516001600160e01b031960e085901b1681526001600160a01b0390921660048301526024820152604401602060405180830381600087803b15801561086a57600080fd5b505af115801561087e573d6000803e3d6000fd5b505050506040513d601f19601f820116820180604052508101906108a29190610c4b565b505050565b6000546001600160a01b031633146108d15760405162461bcd60e51b815260040161038a90610cc7565b6108db6000610ad8565b565b6000546001600160a01b031633146109075760405162461bcd60e51b815260040161038a90610cc7565b6001600160a01b03821660009081526005602052604090205481111561092c57600080fd5b6001600160a01b03821660009081526005602052604090205461094f9082610a36565b6001600160a01b03831660009081526005602090815260408083209390935560049052205461097e9082610a49565b6001600160a01b0390921660009081526004602052604090209190915550565b6000546001600160a01b031633146109c85760405162461bcd60e51b815260040161038a90610cc7565b6001600160a01b038116610a2d5760405162461bcd60e51b815260206004820152602660248201527f4f776e61626c653a206e6577206f776e657220697320746865207a65726f206160448201526564647265737360d01b606482015260840161038a565b6104fb81610ad8565b6000610a428284610d14565b9392505050565b6000610a428284610cfc565b60035460405163d2d7231f60e01b8152600481018390526000916001600160a01b03169063d2d7231f9060240160206040518083038186803b158015610a9a57600080fd5b505afa158015610aae573d6000803e3d6000fd5b505050506040513d601f19601f82011682018060405250810190610ad29190610c86565b92915050565b600080546001600160a01b038381166001600160a01b0319831681178455604051919092169283917f8be0079c531659141344cd1fd0a4f28419497f9722a3daafe3b4186f6b6457e09190a35050565b80356001600160a01b0381168114610b3f57600080fd5b919050565b600060208284031215610b5657600080fd5b610a4282610b28565b60008060408385031215610b7257600080fd5b610b7b83610b28565b9150602083013567ffffffffffffffff80821115610b9857600080fd5b818501915085601f830112610bac57600080fd5b813581811115610bbe57610bbe610d41565b604051601f8201601f19908116603f01168101908382118183101715610be657610be6610d41565b81604052828152886020848701011115610bff57600080fd5b8260208601602083013760006020848301015280955050505050509250929050565b60008060408385031215610c3457600080fd5b610c3d83610b28565b946020939093013593505050565b600060208284031215610c5d57600080fd5b81518015158114610a4257600080fd5b600060208284031215610c7f57600080fd5b5035919050565b600060208284031215610c9857600080fd5b5051919050565b6020810160038310610cc157634e487b7160e01b600052602160045260246000fd5b91905290565b6020808252818101527f4f776e61626c653a2063616c6c6572206973206e6f7420746865206f776e6572604082015260600190565b60008219821115610d0f57610d0f610d2b565b500190565b600082821015610d2657610d26610d2b565b500390565b634e487b7160e01b600052601160045260246000fd5b634e487b7160e01b600052604160045260246000fdfea26469706673582212200a2d695ea1cc4ebf846a49875b74a86fa81a5fa865f5d65e677afc03fdf7779064736f6c63430008070033",
    "sourcePath": "/Users/nuttapol.w/waggy p2p/contracts/Merchant.sol",
    "compiler": {
        "name": "solc",
        "version": "0.8.7+commit.e28d00a7"
    },
    "functionHashes": {
        "approveTransaction(uint256)": "242232d1",
        "cancelTransaction(address,uint256)": "a86658ab",
        "deleteShop()": "43579fe8",
        "owner()": "8da5cb5b",
        "ownerClaimToken()": "42d8a9da",
        "releaseToken(address,uint256)": "53edd8f7",
        "renounceOwnership()": "715018a6",
        "setupShop(uint256)": "51482a39",
        "shopBalance(address)": "23619270",
        "shopLockBalance(address)": "6c87f298",
        "successTransactionCount(address)": "c61cfdc7",
        "transactionStatus(address,string)": "4659e48a",
        "transferOwnership(address)": "f2fde38b",
        "updateRewardCalculator(address)": "33bd789a"
    },
    "gasEstimates": {
        "creation": {
            "codeDepositCost": "693800",
            "executionCost": "infinite",
            "totalCost": "infinite"
        },
        "external": {
            "approveTransaction(uint256)": "infinite",
            "cancelTransaction(address,uint256)": "infinite",
            "deleteShop()": "infinite",
            "owner()": "2323",
            "ownerClaimToken()": "infinite",
            "releaseToken(address,uint256)": "infinite",
            "renounceOwnership()": "28181",
            "setupShop(uint256)": "infinite",
            "shopBalance(address)": "2532",
            "shopLockBalance(address)": "2553",
            "successTransactionCount(address)": "2574",
            "transactionStatus(address,string)": "infinite",
            "transferOwnership(address)": "28397",
            "updateRewardCalculator(address)": "26779"
        },
        "internal": {
            "getReward(uint256)": "infinite"
        }
    }
}