{
    "contractName": "RewardCalculator",
    "abi": [
        {
            "anonymous": false,
            "inputs": [
                {
                    "indexed": true,
                    "internalType": "address",
                    "name": "previousOwner",
                    "type": "address"
                },
                {
                    "indexed": true,
                    "internalType": "address",
                    "name": "newOwner",
                    "type": "address"
                }
            ],
            "name": "OwnershipTransferred",
            "type": "event"
        },
        {
            "inputs": [
                {
                    "internalType": "uint256",
                    "name": "_amount",
                    "type": "uint256"
                }
            ],
            "name": "calculateReward",
            "outputs": [
                {
                    "internalType": "uint256",
                    "name": "",
                    "type": "uint256"
                }
            ],
            "stateMutability": "view",
            "type": "function"
        },
        {
            "inputs": [],
            "name": "owner",
            "outputs": [
                {
                    "internalType": "address",
                    "name": "",
                    "type": "address"
                }
            ],
            "stateMutability": "view",
            "type": "function"
        },
        {
            "inputs": [],
            "name": "renounceOwnership",
            "outputs": [],
            "stateMutability": "nonpayable",
            "type": "function"
        },
        {
            "inputs": [
                {
                    "internalType": "address",
                    "name": "newOwner",
                    "type": "address"
                }
            ],
            "name": "transferOwnership",
            "outputs": [],
            "stateMutability": "nonpayable",
            "type": "function"
        },
        {
            "inputs": [
                {
                    "internalType": "uint256",
                    "name": "_rate",
                    "type": "uint256"
                }
            ],
            "name": "updatePayRate",
            "outputs": [],
            "stateMutability": "nonpayable",
            "type": "function"
        }
    ],
    "bytecode": "6080604052600860015534801561001557600080fd5b5061001f33610024565b610074565b600080546001600160a01b038381166001600160a01b0319831681178455604051919092169283917f8be0079c531659141344cd1fd0a4f28419497f9722a3daafe3b4186f6b6457e09190a35050565b610369806100836000396000f3fe608060405234801561001057600080fd5b50600436106100575760003560e01c806367ea94c41461005c578063715018a6146100715780638da5cb5b14610079578063d2d7231f14610099578063f2fde38b146100ba575b600080fd5b61006f61006a366004610296565b6100cd565b005b61006f610105565b6000546040516001600160a01b0390911681526020015b60405180910390f35b6100ac6100a7366004610296565b61013b565b604051908152602001610090565b61006f6100c836600461026d565b610163565b6000546001600160a01b031633146101005760405162461bcd60e51b81526004016100f7906102af565b60405180910390fd5b600155565b6000546001600160a01b0316331461012f5760405162461bcd60e51b81526004016100f7906102af565b61013960006101fe565b565b600061015d60646101576001548561024e90919063ffffffff16565b90610261565b92915050565b6000546001600160a01b0316331461018d5760405162461bcd60e51b81526004016100f7906102af565b6001600160a01b0381166101f25760405162461bcd60e51b815260206004820152602660248201527f4f776e61626c653a206e6577206f776e657220697320746865207a65726f206160448201526564647265737360d01b60648201526084016100f7565b6101fb816101fe565b50565b600080546001600160a01b038381166001600160a01b0319831681178455604051919092169283917f8be0079c531659141344cd1fd0a4f28419497f9722a3daafe3b4186f6b6457e09190a35050565b600061025a8284610306565b9392505050565b600061025a82846102e4565b60006020828403121561027f57600080fd5b81356001600160a01b038116811461025a57600080fd5b6000602082840312156102a857600080fd5b5035919050565b6020808252818101527f4f776e61626c653a2063616c6c6572206973206e6f7420746865206f776e6572604082015260600190565b60008261030157634e487b7160e01b600052601260045260246000fd5b500490565b600081600019048311821515161561032e57634e487b7160e01b600052601160045260246000fd5b50029056fea2646970667358221220203e3fbae53e722ff774bb4065dcca20ad73d44c4a685dcf11306f9f28d2763b64736f6c63430008070033",
    "sourcePath": "/Users/nuttapol.w/waggy p2p/contracts/RewardCalculator.sol",
    "compiler": {
        "name": "solc",
        "version": "0.8.7+commit.e28d00a7"
    },
    "functionHashes": {
        "calculateReward(uint256)": "d2d7231f",
        "owner()": "8da5cb5b",
        "renounceOwnership()": "715018a6",
        "transferOwnership(address)": "f2fde38b",
        "updatePayRate(uint256)": "67ea94c4"
    },
    "gasEstimates": {
        "creation": {
            "codeDepositCost": "174600",
            "executionCost": "48167",
            "totalCost": "222767"
        },
        "external": {
            "calculateReward(uint256)": "infinite",
            "owner()": "2312",
            "renounceOwnership()": "28114",
            "transferOwnership(address)": "28340",
            "updatePayRate(uint256)": "24442"
        }
    }
}